0000000000002506202500000000000000000000000126062025MCOL16      Y80123100000       INVOICE FOR BRANCHES                              12100003                                 SGD000000020828200HORSE RACING                                  
0000000000002506202500000000000000000000000126062025MCOL17      Y850               SALES IN ADV FOR BRANCHES                         21814009                                 SGD000000020452673HORSE RACING                                  
0000000000002506202500000000000000000000000126062025MCOL18      Y850               GOOD & SERVICES TAX FOR BRANCHES                  22000013                                 SGD000000000396127HORSE RACING                                  
0000000000002506202500000000000000000000000126062025MCOL19      Y840               PRIZES PAID BY BRANCHES                           21815016                                 SGD000000000020600HORSE RACING                                  
0000000000002506202500000000000000000000000226062025MDEP1       YA40               HR CASH RECEIPTS                                  10010001                                 SGD000000020892000HORSE RACING                                  
0000000000002506202500000000000000000000000226062025MDEP2       YA1523100000       HR CASH RECEIPTS                                  12100003                                 SGD000000020892000HORSE RACING                                  
0000000000002506202500000000000000000000000326062025MDEP3       YA0123100000       HR CASH PAYMENTS                                  12100003                                 SGD000000000063800HORSE RACING                                  
0000000000002506202500000000000000000000000326062025MDEP4       YA50               HR CASH PAYMENTS                                  10010001                                 SGD000000000063800HORSE RACING                                  
